{
  "contractName": "DecentralizedInstagram",
  "abi": [
    {
      "anonymous": false,
      "inputs": [
        {
          "indexed": false,
          "internalType": "uint256",
          "name": "id",
          "type": "uint256"
        },
        {
          "indexed": false,
          "internalType": "string",
          "name": "ipfsHash",
          "type": "string"
        },
        {
          "indexed": false,
          "internalType": "string",
          "name": "text",
          "type": "string"
        },
        {
          "indexed": false,
          "internalType": "address",
          "name": "user",
          "type": "address"
        }
      ],
      "name": "PostCreated",
      "type": "event"
    },
    {
      "inputs": [],
      "name": "nextPostId",
      "outputs": [
        {
          "internalType": "uint256",
          "name": "",
          "type": "uint256"
        }
      ],
      "stateMutability": "view",
      "type": "function",
      "constant": true
    },
    {
      "inputs": [
        {
          "internalType": "uint256",
          "name": "",
          "type": "uint256"
        }
      ],
      "name": "posts",
      "outputs": [
        {
          "internalType": "uint256",
          "name": "id",
          "type": "uint256"
        },
        {
          "internalType": "string",
          "name": "ipfsHash",
          "type": "string"
        },
        {
          "internalType": "string",
          "name": "text",
          "type": "string"
        },
        {
          "internalType": "address",
          "name": "user",
          "type": "address"
        }
      ],
      "stateMutability": "view",
      "type": "function",
      "constant": true
    },
    {
      "inputs": [
        {
          "internalType": "string",
          "name": "ipfsHash",
          "type": "string"
        },
        {
          "internalType": "string",
          "name": "text",
          "type": "string"
        }
      ],
      "name": "createPost",
      "outputs": [],
      "stateMutability": "nonpayable",
      "type": "function"
    },
    {
      "inputs": [],
      "name": "getPosts",
      "outputs": [
        {
          "components": [
            {
              "internalType": "uint256",
              "name": "id",
              "type": "uint256"
            },
            {
              "internalType": "string",
              "name": "ipfsHash",
              "type": "string"
            },
            {
              "internalType": "string",
              "name": "text",
              "type": "string"
            },
            {
              "internalType": "address",
              "name": "user",
              "type": "address"
            }
          ],
          "internalType": "struct DecentralizedInstagram.Post[]",
          "name": "",
          "type": "tuple[]"
        }
      ],
      "stateMutability": "view",
      "type": "function",
      "constant": true
    }
  ],
  "bytecode": "0x6080604052600060015534801561001557600080fd5b50610cbd806100256000396000f3fe608060405234801561001057600080fd5b506004361061004c5760003560e01c80630b1e7f8314610051578063392338f51461008457806341f3004a146100a05780635c09bd98146100be575b600080fd5b61006b60048036038101906100669190610739565b6100dc565b60405161007b9493929190610944565b60405180910390f35b61009e600480360381019061009991906106c1565b61024c565b005b6100a86103b0565b6040516100b59190610907565b60405180910390f35b6100c6610593565b6040516100d39190610929565b60405180910390f35b600081815481106100ec57600080fd5b906000526020600020906004020160009150905080600001549080600101805461011590610b5b565b80601f016020809104026020016040519081016040528092919081815260200182805461014190610b5b565b801561018e5780601f106101635761010080835404028352916020019161018e565b820191906000526020600020905b81548152906001019060200180831161017157829003601f168201915b5050505050908060020180546101a390610b5b565b80601f01602080910402602001604051908101604052809291908181526020018280546101cf90610b5b565b801561021c5780601f106101f15761010080835404028352916020019161021c565b820191906000526020600020905b8154815290600101906020018083116101ff57829003601f168201915b5050505050908060030160009054906101000a900473ffffffffffffffffffffffffffffffffffffffff16905084565b60003390506000604051806080016040528060015481526020018581526020018481526020018373ffffffffffffffffffffffffffffffffffffffff16815250905060008190806001815401808255809150506001900390600052602060002090600402016000909190919091506000820151816000015560208201518160010190805190602001906102e0929190610599565b5060408201518160020190805190602001906102fd929190610599565b5060608201518160030160006101000a81548173ffffffffffffffffffffffffffffffffffffffff021916908373ffffffffffffffffffffffffffffffffffffffff160217905550505060018060008282546103599190610a53565b925050819055507fb80f87406b72baa5a47a424e6c8f284ee91e4fef063c94c62ab1ea33a27a858b6001805461038f9190610aa9565b8585856040516103a29493929190610944565b60405180910390a150505050565b60606000805480602002602001604051908101604052809291908181526020016000905b8282101561058a57838290600052602060002090600402016040518060800160405290816000820154815260200160018201805461041190610b5b565b80601f016020809104026020016040519081016040528092919081815260200182805461043d90610b5b565b801561048a5780601f1061045f5761010080835404028352916020019161048a565b820191906000526020600020905b81548152906001019060200180831161046d57829003601f168201915b505050505081526020016002820180546104a390610b5b565b80601f01602080910402602001604051908101604052809291908181526020018280546104cf90610b5b565b801561051c5780601f106104f15761010080835404028352916020019161051c565b820191906000526020600020905b8154815290600101906020018083116104ff57829003601f168201915b505050505081526020016003820160009054906101000a900473ffffffffffffffffffffffffffffffffffffffff1673ffffffffffffffffffffffffffffffffffffffff1673ffffffffffffffffffffffffffffffffffffffff1681525050815260200190600101906103d4565b50505050905090565b60015481565b8280546105a590610b5b565b90600052602060002090601f0160209004810192826105c7576000855561060e565b82601f106105e057805160ff191683800117855561060e565b8280016001018555821561060e579182015b8281111561060d5782518255916020019190600101906105f2565b5b50905061061b919061061f565b5090565b5b80821115610638576000816000905550600101610620565b5090565b600061064f61064a846109bc565b610997565b90508281526020810184848401111561066b5761066a610c50565b5b610676848285610b19565b509392505050565b600082601f83011261069357610692610c4b565b5b81356106a384826020860161063c565b91505092915050565b6000813590506106bb81610c70565b92915050565b600080604083850312156106d8576106d7610c5a565b5b600083013567ffffffffffffffff8111156106f6576106f5610c55565b5b6107028582860161067e565b925050602083013567ffffffffffffffff81111561072357610722610c55565b5b61072f8582860161067e565b9150509250929050565b60006020828403121561074f5761074e610c5a565b5b600061075d848285016106ac565b91505092915050565b6000610772838361087f565b905092915050565b61078381610add565b82525050565b61079281610add565b82525050565b60006107a3826109fd565b6107ad8185610a20565b9350836020820285016107bf856109ed565b8060005b858110156107fb57848403895281516107dc8582610766565b94506107e783610a13565b925060208a019950506001810190506107c3565b50829750879550505050505092915050565b600061081882610a08565b6108228185610a31565b9350610832818560208601610b28565b61083b81610c5f565b840191505092915050565b600061085182610a08565b61085b8185610a42565b935061086b818560208601610b28565b61087481610c5f565b840191505092915050565b600060808301600083015161089760008601826108e9565b50602083015184820360208601526108af828261080d565b915050604083015184820360408601526108c9828261080d565b91505060608301516108de606086018261077a565b508091505092915050565b6108f281610b0f565b82525050565b61090181610b0f565b82525050565b600060208201905081810360008301526109218184610798565b905092915050565b600060208201905061093e60008301846108f8565b92915050565b600060808201905061095960008301876108f8565b818103602083015261096b8186610846565b9050818103604083015261097f8185610846565b905061098e6060830184610789565b95945050505050565b60006109a16109b2565b90506109ad8282610b8d565b919050565b6000604051905090565b600067ffffffffffffffff8211156109d7576109d6610c1c565b5b6109e082610c5f565b9050602081019050919050565b6000819050602082019050919050565b600081519050919050565b600081519050919050565b6000602082019050919050565b600082825260208201905092915050565b600082825260208201905092915050565b600082825260208201905092915050565b6000610a5e82610b0f565b9150610a6983610b0f565b9250827fffffffffffffffffffffffffffffffffffffffffffffffffffffffffffffffff03821115610a9e57610a9d610bbe565b5b828201905092915050565b6000610ab482610b0f565b9150610abf83610b0f565b925082821015610ad257610ad1610bbe565b5b828203905092915050565b6000610ae882610aef565b9050919050565b600073ffffffffffffffffffffffffffffffffffffffff82169050919050565b6000819050919050565b82818337600083830152505050565b60005b83811015610b46578082015181840152602081019050610b2b565b83811115610b55576000848401525b50505050565b60006002820490506001821680610b7357607f821691505b60208210811415610b8757610b86610bed565b5b50919050565b610b9682610c5f565b810181811067ffffffffffffffff82111715610bb557610bb4610c1c565b5b80604052505050565b7f4e487b7100000000000000000000000000000000000000000000000000000000600052601160045260246000fd5b7f4e487b7100000000000000000000000000000000000000000000000000000000600052602260045260246000fd5b7f4e487b7100000000000000000000000000000000000000000000000000000000600052604160045260246000fd5b600080fd5b600080fd5b600080fd5b600080fd5b6000601f19601f8301169050919050565b610c7981610b0f565b8114610c8457600080fd5b5056fea26469706673582212202c640ac20cbac4faa4857df6e1a5344995fd3e99adee81784008603abea7315064736f6c63430008070033",
  "immutableReferences": {},
  "source": "// SPDX-License-Identifier: MIT\r\npragma solidity ^0.8.7;\r\n\r\ncontract DecentralizedInstagram {\r\n\r\n    Post[] public posts;\r\n    uint public nextPostId = 0;\r\n\r\n\r\n    struct Post {\r\n        uint id;\r\n        string ipfsHash;\r\n        string text;\r\n        address user;\r\n    }\r\n\r\n    event PostCreated(\r\n        uint id,\r\n        string ipfsHash,\r\n        string text,\r\n        address user\r\n    );\r\n\r\n\r\n\r\n    function createPost(string memory ipfsHash, string memory text) public {\r\n        address user = msg.sender;\r\n\r\n        Post memory newPost = Post(nextPostId, ipfsHash, text, user);\r\n        posts.push(newPost);\r\n\r\n        nextPostId += 1;\r\n\r\n        emit PostCreated(nextPostId - 1, ipfsHash, text, user);\r\n\r\n    }\r\n\r\n    function getPosts() external view returns(Post[] memory) {\r\n        return posts;\r\n    }\r\n}",
  "sourcePath": "D:/Alvin/blockchain/instagram/contracts/DecentralizedInstagram.sol",
  "compiler": {
    "name": "solc",
    "version": "0.8.7+commit.e28d00a7.Emscripten.clang"
  },
  "schemaVersion": "3.2.3",
  "updatedAt": "2021-11-21T05:35:20.758Z",
  "networkType": "ethereum",
  "devdoc": {
    "kind": "dev",
    "methods": {},
    "version": 1
  },
  "userdoc": {
    "kind": "user",
    "methods": {},
    "version": 1
  }
}